:1000000000308A00A72800002730840083130008EE
:10001000031918280130F800F701F70B0D28F80B29
:100020000C284A30F700F70B13281628800B0A28F3
:1000300008002B0EF039F7000F3008057704880010
:10004000000008142328081008000808F700080E0C
:100050000F39F80008002830A3000C30A40001304C
:10006000A5000630A6000810881008110F3083166E
:10007000080588000810881008110F308312A700A7
:1000800004200130A2002208033C031C4F28033047
:10009000AB0019200530A7000420A20A4328023033
:1000A000AB0019200530A7000420A2012208033C60
:1000B000031CA42823302207840083130008A70010
:1000C000A8012708A90083160810881008118312B8
:1000D00088100F3083160805F03888008312081541
:1000E00000000814000025207808AB00081000006C
:1000F0000814000025207808AA0008100F30831685
:100100000805880083122B0EF700F030F7057708FA
:100110002A04F8007808AA00AA1B6928281C88105D
:10012000281888140000081100000810290EAA00E1
:100130000F30AA052A08AB00192029080F39AA0098
:10014000AB001920A20A56288A110A12C1280308F6
:100150001F398300193083169900A630980090301B
:1001600083129800FF30A00083161F149F141F15E0
:100170009F1107309C0083138C16C03083128B04B0
:100180002B287730A10021080C1EC4289900630099
:02400E00713F00
:00000001FF
;PIC16F877A
;CRC=F0AB  CREATED="02-jun.-23 13:53"
