:1000000001308A009F2900006136E4370000413644
:10001000E4377800273084008313000803191E2872
:100020000130F800F701F70B1328F80B12284A30BB
:10003000F700F70B19281C28800B102808002D0E3C
:10004000F039F7000F300805770488000000081425
:100050002928081008000808F700080E0F39F800D2
:1000600008008316081088100811831288100F30BA
:1000700083160805F038880083120815000008145C
:1000800000002B207808AD000810000008140000C4
:100090002B207808AC0008100F3083160805880064
:1000A00083122D0EF700F030F70577082C04F800C6
:1000B0007808AC00AC1B37282A1C88102A18881432
:1000C00000000811000008102B0EAC000F30AC052A
:1000D0002C08AD001F202B080F39AC00AD001F20ED
:1000E00008002830A3000C30A4000130A500063021
:1000F000A6000810881008110F3083160805880024
:100100000810881008110F308312A7000A20013050
:10011000A2002208033C031C95280330AD001F20D9
:100120000530A7000A20A20A89280230AD001F204E
:100130000530A7000A20A2012208033C031CAC28BA
:1001400023302207840083130008A700AA01270890
:10015000AB003120A20A9C288A110A12B929270B68
:10016000B228B5284030A800B628A80101302602E0
:10017000A80728088038A900AA012908AB00312067
:1001800008002508073A0319CF280B3A0319D42889
:10019000063A0319DC28023A0319E228E72801305D
:1001A000A600A700AF20EC28AA010130AB00312047
:1001B0000230A7000A20EC280130A6000230A70078
:1001C000AF20EC28AA011030AB003120EC28013020
:1001D000AA002508AB00312008000B08A2008B13F1
:1001E000831603178C170C140000000083120313EE
:1001F000A21B8B1703170C087F390319412903131E
:10020000A20003170D080313A30003170F0803131D
:10021000A4002208A500C120230803178D000313A2
:10022000240803178F0003130B08A5008B138316F4
:1002300003178C170C140000000083120313A51B76
:100240008B1703170C0D0E0D7F390319412903136A
:10025000A20003170D080313A30003170F080313CD
:10026000A4002208A500C120230803178D00031352
:10027000240803178F008D0A03198F0A0313ED2832
:10028000031703138A110A12C8290B08A2008B1343
:10029000831603178C170C1400000000831203133D
:1002A000A21B8B1703170C087F3903199B29031313
:1002B000A20003170D080313A30003170F0803136D
:1002C000A40022080C1E62299900230803178D0040
:1002D0000313240803178F0003130B08A5008B13C7
:1002E000831603178C170C140000000083120313ED
:1002F000A51B8B1703170C0D0E0D7F3903199B29B6
:100300000313A20003170D080313A30003170F081C
:100310000313A40022080C1E8B299900230803173D
:100320008D000313240803178F008D0A03198F0A09
:1003300003134529031703138A110A12D729030847
:100340001F398300193083169900A6309800903029
:1003500083129800FF30A00083161F149F141F15EE
:100360009F1107309C0083138C16C03083128B04BE
:1003700071288C1EB9291A08A1000130A600A70017
:10038000AF20043003178D0000308F000313ED28D9
:10039000C830A7000A200730A6000230A700AF200F
:1003A000073003178D0000308F00031345290A30F2
:0803B000A7000A20CB2963001D
:02400E00713F00
:00000001FF
;PIC16F877A
;CRC=0A5F  CREATED="02-jun.-23 14:06"
