:1000000001308A000A2900002C3084008313000884
:10001000031918280130F800F701F70B0D28F80B29
:100020000C284A30F700F70B13281628800B0A28F3
:100030000800300EF039F7000F300805770488000B
:10004000000008142328081008000808F700080E0C
:100050000F39F80008008316081088100811831261
:1000600088100F3083160805F038880083120815B1
:1000700000000814000025207808B00008100000D7
:100080000814000025207808AF0008100F308316F0
:10009000080588008312300EF700F030F705770866
:1000A0002F04F8007808AF00AF1B31282D1C8810F2
:1000B0002D18881400000811000008102E0EAF0043
:1000C0000F30AF052F08B00019202E080F39AF00F0
:1000D000B000192008002830A8000C30A900013019
:1000E000AA000630AB000810881008110F308316E4
:1000F000080588000810881008110F308312AC0022
:1001000004200130A7002708033C031C8F2803307C
:10011000B00019200530AC000420A70A8328023063
:10012000B00019200530AC000420A7012708033CCB
:10013000031CA62828302707840083130008AC007E
:10014000AD012C08AE002B20A70A96288A110A12AE
:1001500021292A0BAC28AF284030AB00B028AB01D6
:1001600001302902AB072B088038AC00AD012C0808
:10017000AE002B2008008E30F7002708F702280871
:10018000F9002908F800F917F7080319D228031015
:10019000F908031DCE28F8080319D228F90CF80C29
:1001A000F70BC728A81FD928F809F909F80A031975
:1001B000F90A8A110A1239292808073A0319EA2884
:1001C0000B3A0319EF28063A0319F728023A0319E4
:1001D000FD2802290130A900AA00A9200729AD01A4
:1001E0000130AE002B200230AC0004200729013082
:1001F000A9000230AA00A9200729AD011030AE00E5
:100200002B2007290130AD002808AE002B208A11D1
:100210000A123D2903081F398300193083169900FB
:10022000A630980090308312980083161F149F14F4
:100230001F159F1107309C0083138312A001A10199
:100240006B28CD30A500CC30A4001630A30084303C
:10025000A2003930A6000330A9000130AA00A9206D
:100260002508AA002408A9002308A8002208A7003E
:10027000BB287808A700A800DC2826080C1E3E2909
:1002800099000430A700FA30AC000420A70B4329E2
:040290002B296300B3
:02400E00723FFF
:00000001FF
;PIC16F877A
;CRC=ECB5  CREATED="06-jun.-23 07:04"
